:020000040800F2
:10000000000B0020212C00084309000845090008C6
:10001000570900085B0900085F090008000000009C
:10002000000000000000000000000000630900085C
:100030006509000800000000670900086909000858
:10004000372C0008372C0008372C0008E10800087E
:10005000372C0008372C0008372C0008372C0008F4
:10006000372C0008372C0008372C0008372C0008E4
:10007000372C0008372C0008372C0008372C0008D4
:10008000372C0008372C0008372C0008372C0008C4
:10009000372C0008372C0008372C0008F30800081C
:1000A000372C0008372C0008372C0008372C0008A4
:1000B000372C0008A308000821170008372C000877
:1000C000372C0008372C0008372C0008372C000884
:1000D000372C0008330800082D0700086B080008BB
:1000E000372C0008372C0008372C0008DFF80CD01C
:1000F00004F09CFD0048004727040008000B002086
:10010000EFF30980704780F309887047EFF30880A8
:10011000704780F30888704740BA7047C0BA70478C
:1001200010B5CEA004F0B4FD40F20721D24804F08F
:10013000E8FCD2480021016041600172FF20CF49F4
:1001400008704870CEA004F0A3FDCC4800210160E7
:1001500041600172FF20C949087048704B21D048A6
:1001600004F0CFFCFF20CE4908704870472002F011
:1001700029F9CB494880022008710846C9A10A68BC
:1001800082604968C160C7A10A680261496841612B
:10019000C7A10A6882614968C161C5A10A68026293
:1001A000496841622022C5A1283004F091FC00205A
:1001B00002F008F9BA49A1F84800C9A004F068FDA6
:1001C0001521D14804F09DFCFF20CF4908704870EC
:1001D000112002F0F7F8CC49488005200871CBA027
:1001E00004F056FDD1480021016041600172FF20FA
:1001F000CE4908704870052002F0E4F8CB494880E9
:100200000B200871CAA004F043FDD2480021016010
:1002100041600181FF20CF4908704870062002F03C
:10022000D1F8CC49488009200871CBA004F030FDFA
:10023000D148002101608180052002F0C3F8CE4939
:100240008880CEA004F024FDD34800210180817075
:10025000D2A004F01DFDD74800210180817010BD9F
:1002600030B585B0D4A004F013FD03F0E3F80446E4
:10027000042C03D1D5A004F00BFD09E01CB9D9A0D2
:1002800004F006FD04E0082C02D1DCA004F000FD1F
:10029000684603F030F9DF490098B0FBF1F52946D4
:1002A000DDA004F0F5FCDB490198B0FBF1F529462F
:1002B000DEA004F0EDFCD7490298B0FBF1F5294629
:1002C000E0A004F0E5FCD3490398B0FBF1F5294622
:1002D000E2A004F0DDFCCF490498B0FBF1F529461B
:1002E000E4A004F0D5FC05B030BD1FB500F0C2FCA1
:1002F0008549B1F80D1008B202F064F8044682484E
:10030000C17B027C407CCDE90040CDE902217E48E2
:10031000037BC27A817AE04804F0BAFCDF4804F03B
:10032000B7FC1FBD08B500F085FDDDA004F0B0FCF2
:1003300001F017F9DBA004F0ABFC092141F61F40E6
:1003400000F018FFDBA004F0A3FC00F0EFFEDFA03C
:1003500004F09EFC01F0AEF9E0A004F099FC482006
:1003600000F03EFB01F0A1FAE0A004F091FC01F0E6
:1003700028FCE2A004F08CFC01F04FFDE3A2002178
:10038000282001F072FEE3A22021002001F06DFE82
:10039000022000F077FB002001F02AFD0022114628
:1003A000104601F0A0FE01220021122001F09BFE68
:1003B00002220021242001F096FE03220021362093
:1003C00001F091FE04220021482001F08CFE05225C
:1003D00000215A2001F087FE062200216C2001F046
:1003E00082FE052000F04EFBCE480823802200212B
:1003F0000090084601F0A8FE08BD10B50024CA48C8
:10040000006840F6B83188420CD30020C649086025
:1004100003223D490F31604804F07EFBC4B20CB1A9
:1004200001F073FF10BD02F0CFFB00F057FEFFF7A5
:1004300017FF00F0E8FBFFF775FFFFF771FE0CE018
:1004400002F0EDF900F090FF01F0C3FB5249891C66
:10045000481E01F0FEF9FFF7D0FFF1E75541525475
:100460005F48616E646C6553747275637420496E85
:1004700069742E2E2E0D0A004000002092020020EA
:1004800050726F5F436F6D6D6F6E436D6453747226
:1004900075637420496E69742E2E2E0D0A000000BB
:1004A000470200203030303030303034000000005F
:1004B00030303030303030310000000036663330BC
:1004C000373466653433383934353437613466311E
:1004D0003331346264376533616530620000000097
:1004E00050726F5F4432575F5265706F727453740D
:1004F0006174757353747275637420496E69742ED8
:100500002E2E0D0A00000000B902002050726F5F0D
:100510004D32575265736574436D645374727563DD
:100520007420496E69742E2E2E0D0A00A60200203A
:1005300050726F5F443257436F6E666967436D64F4
:1005400053747275637420496E69742E2E2E0D0AD1
:1005500000000000AF0200204465766963655F57C4
:100560006972746553747275637420496E69742E70
:100570002E2E0D0A0000000002000020446576695E
:1005800063655F5265616453747275637420496E6C
:1005900069742E2E2E0D0A00080000204B45595F6D
:1005A00053746174757320496E69742E2E2E0D0A72
:1005B000000000000B00002053797374656D2073F8
:1005C000746172742E2E2E0D0A000000535953438D
:1005D0004C4B536F75726365206973204853450D0A
:1005E0000A000000535953434C4B536F75726365B7
:1005F000206973204853490D0A00000053595343A2
:100600004C4B536F7572636520697320504C210DFC
:100610000A00000040420F0053595320636C6F637F
:100620006B203D25644D487A200D0A0048434C4B11
:1006300020636C6F636B203D25644D487A200D0A62
:100640000000000050434C4B3120636C6F636B2003
:100650003D25644D487A200D0A00000050434C4B64
:10066000325F636C6F636B203D25644D487A200DCB
:100670000A00000053414443434C4B5F467265718E
:1006800075656E6379636C6F636B203D25644D48BF
:100690007A200D0A00000000C8610008706100089F
:1006A000524742204C454420496E6974204F4B0DFF
:1006B0000A00000053797374656D54696D652049B3
:1006C0006E6974204F4B0D0A000000004B45592005
:1006D000496E6974204F4B0D0A0000004D6F746F16
:1006E0007220496E6974204F4B0D0A004448543102
:1006F0003120496E6974204F4B0D0A004952204940
:100700006E6974204F4B0D0A00000000476F4B6963
:10071000740000007777772E67697A776974732E93
:10072000636F6D00565D00081400002010B540F2A4
:100730002551924804F034F9002878D040F2255130
:100740008E4804F057F98D4804F0C1F8C4B28C48C3
:10075000007800286BD18A484078A0B9FF2C11D1CD
:1007600000208749A1F803000846B0F80310801D57
:100770004454801FB0F80300401C8149A1F80300D5
:100780000120487010BD7E488078B0B97C48B0F830
:100790000310801D4454801FB0F80300401C7849AA
:1007A000A1F803000846C079FF2802D10120887013
:1007B00002E0002072494870E4E77148B0F8031085
:1007C000801D4454801FB0F8030004280FDB6C48E0
:1007D000B0F80310801D405C552808D16848B0F877
:1007E0000300401E6649891D085CFF2806D0644846
:1007F000B0F80300401C6249A1F803006048B0F85B
:100800000300042806D15E48417A007A01EB0020FB
:100810005B4948715A48B0F803104079001D814285
:1008200005D101205649087000204870887000BF2B
:10083000A8E710B540F22551524804F0B1F898B13C
:1008400040F225514F4804F0D5F84E4804F03FF8E7
:10085000044621464B4804F036F800BF8021494841
:1008600004F088F80028F9D010BD10B540F22551E9
:10087000454804F095F898B140F22551424804F0FB
:10088000B9F8414804F023F8044621463E4804F0F4
:100890001AF800BF80213C4804F06CF80028F9D019
:1008A00010BD10B50121394803F0D7FEB8B10121C0
:1008B000364803F0E3FE36480068401C34490860BF
:1008C00034480078401C3349087033480078401C95
:1008D0003149087031480068401C3049086010BD3B
:1008E00010B5012002F062FF10B1012002F06EFF8E
:1008F00010BD10B52A48006820F0020028490860A1
:1009000013E028A004F0C4F980212B4802F0E7FB93
:1009100018B100202949087002E001202749087019
:1009200001F0F3FC802002F0DEFA802002F0CAFA27
:100930000028E6D11A48006840F002001849086013
:1009400010BD7047FFF7DCFB044621461CA004F0F5
:100950009FF900BFFEE700BFFEE700BFFEE700BF54
:10096000FEE770477047704710B518A004F090F983
:1009700000204FF0E021886110BD000000440040DD
:1009800040000020003801400048004000040040C2
:10099000100000200000002024000020140000208F
:1009A00004040140496E6672617265645F45585483
:1009B000492E2E2E0D0A0000000C014008000020D8
:1009C000725F7370203D203078257800537973541E
:1009D00069636B5F48616E646C6572200D0A00008C
:1009E00010B504466FF0040002F077F9E11704EB4C
:1009F0005171C1F3C7012B4A11701046007800EB0A
:100A00004001C1EBC0104FF6FF7101EAC00026495A
:100A1000088010BD0146234A12784A434FF0E02374
:100A20005A6100229A6101221A6100BF4FF0E02250
:100A3000106900F001021AB100F48032002AF5D0EA
:100A400000224FF0E0231A619A6170470146164A6E
:100A500012884A434FF0E0235A6100229A61012232
:100A60001A6100BF4FF0E022106900F001021AB1D4
:100A700000F48032002AF5D000224FF0E0231A6102
:100A80009A61704730B50446002504E06420FFF702
:100A9000DDFF681C85B204EB84004000A842F5DC51
:100AA00030BD00001A0000201C00002073B5054670
:100AB00001A804F06FF80446606900F26C70606190
:100AC0002C222146284604F003F87CBD0FB410B553
:100AD0000798A0F26C70079002A803F0A5FF10BC65
:100AE0005DF814FB10B502F0F7FD10BD30B58BB00A
:100AF000044602F0F1FD054629466846FFF7D6FF99
:100B00002C226946204603F0E3FF0BB030BD10B540
:100B1000044602F01DFE204602F0E7FD02F018FE3A
:100B200010BD0FB410B588B01C220EA9684603F0A2
:100B3000CFFF0AA80FC8FFF7C9FF0446FFF7E7FF7A
:100B400008B010BC5DF814FB08B54FF4C06002F0AB
:100B500075F803208DF8000001208DF801000020B9
:100B60008DF8020001208DF80300684602F06BF852
:100B700008BD10B501214FF0C05002F036FD012034
:100B800002F063FB02F0C8F8012002F08EFC00BF07
:100B9000412002F0F2FB0028FAD04FF4807002F0FE
:100BA000A0FC012002F0A3FC02F0DBFD02F0D0FD6E
:100BB0000121084602F070FD02F0CAFD47F6FF7001
:100BC00002F0A0FD02F0C4FD10BD00B593B02C21D1
:100BD00008A803F096FF40F2DE700D900C200C90F8
:100BE0001D200B9016200A900920099000200890E3
:100BF0001C220CA9684603F06BFF08A80FC8FFF77A
:100C000090FF13B000BD10B5042002F0BAF84AF20C
:100C1000A55188420FD021A004F03AF8FFF7A9FFB0
:100C2000FFF7D3FF25A004F033F84AF2A5510420C2
:100C300002F09BF819E07B2002F09FFB18B125A081
:100C400004F026F806E07A2002F097FB10B129A004
:100C500004F01EF82FA004F01BF802F082FD012121
:100C6000084602F019FD02F073FDFFF76DFF02F078
:100C7000EDFC10BD00B58FB004A8FFF737FFDDE92C
:100C800005210498CDE9001202902AA0DDE907327F
:100C9000099903F0FDFF0FB000BD0000525443203E
:100CA0006E6F742079657420636F6E666967757204
:100CB00065642E2E2E2E0D0A000000005254432093
:100CC000636F6E666967757265642E2E2E2E0D0A2F
:100CD00000000000506F776572204F6E20526573E0
:100CE0006574206F636375727265642E2E2E2E0DEF
:100CF0000A00000045787465726E616C205265735D
:100D00006574206F636375727265642E2E2E2E0DCE
:100D10000A0000004E6F206E65656420746F2063CA
:100D20006F6E666967757265205254432E2E2E2EA3
:100D30000D0A000054696D653A2025642D25642D47
:100D40002564202020253032643A253032643A254B
:100D50003032640D0A00000008B5002100910091B6
:100D600002E00099491C009100998142F9D308BD25
:100D700010B54FF48071484802F0CDF92820FFF7F4
:100D8000EBFF4FF48071444802F0C3F92820FFF7CD
:100D9000E3FF10BD10B54FF400713F4802F0BBF9FE
:100DA000002403E0FFF7E4FF601CC4B2202CF9DB51
:100DB00010BD01460020CA43C2F38110704770B5D0
:100DC0000446002512E004F0004028B14FF4007101
:100DD000314802F09EF904E04FF400712E4802F011
:100DE0009AF96400FFF7C4FF681CC5B2202DEADB46
:100DF00070BD2DE9F04107460D461646002444F02B
:100E000040442846FFF7D5FF44EA00743046FFF718
:100E1000D0FF44EA80643846FFF7CBFF44EA006421
:100E200044EA054444EA06243C432046FFF7C7FF52
:100E3000BDE8F08108B50121082002F0C9FB1020AF
:100E40008DF803004FF44070ADF8000003208DF8DA
:100E500002006946104802F0AFF8FFF79BFF00223E
:100E600011461046FFF7C5FF002211461046FFF756
:100E7000C0FF08BD70B504460D461646FFF78AFF51
:100E8000324629462046FFF7B4FF3246294620461F
:100E9000FFF7AFFF70BD0000000C014008B5012155
:100EA000042002F095FB0121084602F091FB01218C
:100EB000880302F08DFB4FF40070ADF8000018209D
:100EC0008DF8030003208DF802006946914802F076
:100ED00073F84FF48060ADF8000004208DF8030033
:100EE00069468C4802F068F80121042002F070FB8A
:100EF0000121480402F079FB0121084602F068FB59
:100F00000420ADF8000018208DF8030003208DF8B0
:100F1000020069467F4802F04FF80820ADF8000053
:100F200004208DF8030069467A4802F045F8012153
:100F3000102002F04DFB0121880402F056FB012134
:100F4000084602F045FB0121734802F006F94FF410
:100F50008060ADF8000018208DF8030003208DF8A4
:100F6000020069466D4802F027F84FF40060ADF8C2
:100F7000000004208DF803006946684802F01CF860
:100F800008BD1FB54FF4E13000900020ADF804001B
:100F9000ADF80600ADF80800ADF80C000C20ADF877
:100FA0000A0069465E4803F0B0FB012240F2255179
:100FB0005B4803F027FC0121594803F017FC40214E
:100FC000574803F0E4FC4FF4165000900020ADF8B1
:100FD0000400ADF80600ADF80800ADF80C000C20D8
:100FE000ADF80A0069464F4803F08FFB012240F23A
:100FF00025514C4803F006FC01214A4803F0F6FB5A
:101000004021484803F0C3FC4FF4E1300090002039
:10101000ADF80400ADF80600ADF80800ADF80C001E
:101020000C20ADF80A0069463F4803F06EFB012230
:1010300040F225513C4803F0E5FB01213A4803F01A
:10104000D5FB4021384803F0A2FC1FBD08B5252080
:101050008DF8000000208DF801008DF802000120BD
:101060008DF80300684601F0EEFD26208DF80000A3
:1010700000208DF8010001208DF802008DF803009A
:10108000684601F0E0FD27208DF8000000208DF873
:10109000010001208DF802008DF80300684601F080
:1010A000D2FD08BD10B5044621461E4803F00BFCD6
:1010B00000BF80211B4803F05DFC0028F9D010BD63
:1010C00010B504462146164803F0FDFB00BF802101
:1010D000134803F04FFC0028F9D010BD10B5FFF7FE
:1010E000DDFEFFF74EFFFFF7B1FF10BD014600BF69
:1010F000704770B504460D46E1B2094803F0E3FBC2
:1011000000BF8021064803F035FC0028F9D02046B6
:1011100070BD0000000801401000140000100140E4
:1011200000380140004400400048004008B501215B
:101130001C2002F04DFA03208DF8020048208DF8A3
:1011400003004FF48060ADF800006946B74801F035
:1011500033FF4FF48070ADF800006946B44801F0E9
:101160002BFF4FF40050ADF800006946B14801F084
:1011700023FF08BD7FB505460C460121022002F081
:1011800034FAADF80850ADF804400020ADF80A007C
:10119000ADF8060001A9A84802F00AFD0122114697
:1011A000A54802F0ACFF1D208DF8000000208DF84E
:1011B000010002208DF8020001208DF8030068462E
:1011C00001F041FD01219C4802F07EFF7FBD10B57A
:1011D0004FF48061954801F082FF08B944F00104A2
:1011E0004FF48071924801F07AFF08B944F002048C
:1011F0004FF400518F4801F072FF08B944F0040425
:10120000204610BD70B500258C4800780A2805DB03
:1012100000208A49087001208949087088480078B0
:10122000012855D1002086490870FFF7D0FF0446F9
:101230008448007830B101280BD0022819D0032847
:1012400045D13CE024B18048047001207D490870FC
:101250003DE07D480078844207D10220794908703A
:101260007948007840F0100502E0002075490870C8
:101270002DE07548007884420AD00020714908703A
:10128000724908807048007840F02005284670BDFB
:101290006D480078844211D16C480088401C6B492D
:1012A000088008460088642808DB002008800320A6
:1012B0006449087044F080052846E8E707E0624882
:1012C0000078844202D000205E49087000BF00BF51
:1012D0000020DCE710B50446012C1FD132205C4908
:1012E000487000208870C8700B46DA789978587872
:1012F000FFF7C0FD574800785749487155480078B6
:10130000401C544908700921534800F0BAFF524963
:10131000087200220921504800F054FF022C22D10B
:1013200000204B49487088703220C8700B46DA782C
:1013300099785878FFF79EFD4648007847494871EC
:1013400044480078401C4349087002204349087211
:101350000A21424800F095FF4049487200220A21C4
:101360003E4800F02FFF10BD10B50024FFF74AFFE4
:10137000044604F02000002834D004F0010050B1ED
:1013800037A003F085FC0A2200210846FFF772FD12
:10139000002000F0A6F904F0020050B134A003F0E0
:1013A00077FC00220A211046FFF764FD0A2000F0B6
:1013B00098F904F00400A8B131A003F069FC002200
:1013C00011460A20FFF756FD3149481E00F041FA48
:1013D0002F48801E827841782EA003F059FC05200A
:1013E00000F07FF904F0800000281DD004F0010017
:1013F00040B10120FFF76EFF2EA003F049FC32A0A0
:1014000003F046FC04F0020040B10220FFF762FF47
:1014100032A003F03DFC36A003F03AFC04F00400D7
:1014200010B138A003F034FC10BD0000000C0140E6
:10143000000801400010014000040040240000208A
:1014400025000020260000202A000020280000207F
:10145000020000200E000020A6020020AF020020A3
:101460004B4559312050524553530D0A000000009E
:101470004B4559322050524553530D0A000000008D
:101480004B4559332050524553530D0A000000007C
:101490000A00002054656D70657261747572652074
:1014A0003D25643B48756D6964697479203D20254C
:1014B000642000004B455931204C6F6E672050521C
:1014C0004553530D0A0000004D32572052455345F5
:1014D0005420574946490D0A000000004B45593237
:1014E000204C6F6E672050524553530D0A00000088
:1014F0004D32572020436F6E666967205749464931
:101500000D0A00004B455933204C6F6E6720505236
:101510004553530D0A00000010B50446012C06D0B7
:10152000022C0AD0042C0ED0082C17D111E04FF455
:1015300000413B4801F0EFFD11E04FF48041384895
:1015400001F0E9FD0BE04FF40061354801F0E3FDE7
:1015500005E00221324801F0DEFD00E000BF00BFDF
:1015600010BD08B50121082002F032F803208DF8E3
:10157000020010208DF8030003208DF802004FF4C4
:101580000040ADF800006946254801F015FD4FF414
:101590008040ADF800006946214801F00DFD4FF490
:1015A0000060ADF8000069461D4801F005FD02200D
:1015B000ADF8000069461A4801F0FEFC0120FFF773
:1015C000ABFF0220FFF7A8FF0420FFF7A5FF0820CC
:1015D000FFF7A2FF08BD10B50446012C06D0022C6F
:1015E0000AD0042C0ED0082C17D111E04FF4004182
:1015F0000B4801F08EFD11E04FF48041084801F0E6
:1016000088FD0BE04FF40061054801F082FD05E024
:101610000221034801F07DFD00E000BF00BF10BDC6
:10162000000C014008B50121092001F0D1FF012182
:10163000022001F0DAFF01213F4801F08EFD012177
:101640003E4801F08AFD3020ADF8000018208DF8EA
:10165000030003208DF802006946394801F0ACFC14
:1016600008BD7FB54FF4FA752C466020ADF8000038
:101670000120ADF80200ADF806500020ADF80800DA
:101680006946304802F0ADFA08212E4802F04CFEBF
:101690000120ADF80200ADF806406946294802F085
:1016A000D7FA0821274802F048FE0121254802F018
:1016B0000BFD7FBD10B5FFF7B5FFFFF7D2FF10BDE3
:1016C00070B504460D46092604FB06F081B21D489C
:1016D00002F094FF05FB06F081B21A4802F090FF79
:1016E00070BD10B50446052C04D100210846FFF753
:1016F000E7FF14E0052C07DD04EB84014906080E22
:101700000021FFF7DDFF0AE0052C08DAC4F10A002A
:1017100000EB80004006010E0020FFF7D1FF10BD56
:1017200010B50121084802F098FF18B101210648C0
:1017300002F0A4FF10BD00000002300000081A00F3
:10174000000C0140000400400008004008B50820DB
:10175000ADF8000010208DF8030001208DF8020084
:101760006946614801F028FC0020604908601420A7
:10177000FFF76CF901205E49C1F88C011E20FFF7CC
:1017800049F908BD38B500240820ADF8000048200C
:101790008DF8030001208DF802006946524801F0DF
:1017A0000BFC04E0601CC4B20120FFF733F94F4882
:1017B0008038006808B1642CF4DB642C01DB012064
:1017C00038BD002404E0601CC4B20120FFF722F9F8
:1017D00046488038006808B9642CF4DB642C01DBCF
:1017E0000120EDE70020EBE710B5002404E0601CC9
:1017F000C4B20120FFF70EF93C488038006808B1F8
:10180000642CF4DB002404E0601CC4B20120FFF768
:1018100001F936488038006808B9642CF4DB2820C8
:10182000FFF7F8F831488038006808B1012010BD92
:101830000020FCE770B50024002506E06006040ED9
:10184000FFF7D2FF0443681CC5B2082DF6DB204623
:1018500070BD7CB505460E46FFF778FFFFF792FF97
:10186000F8B9002405E0FFF7E5FF0DF80400601C5F
:10187000C4B2052CF7DB9DF800009DF80110084468
:101880009DF8021008449DF8031008449DF80410C8
:10189000884208D19DF8000030709DF80200287041
:1018A00001E001207CBD0020FCE708B501210820F3
:1018B00001F08EFE01210F4801F04FFC0820ADF829
:1018C000000010208DF8030003208DF80200694607
:1018D000054801F071FB0821034801F01AFCFFF7ED
:1018E00035FFFFF74FFF08BD000C01408C812142FE
:1018F00000802142000230002DE9FF4707460E46D6
:10190000904699460121084601F062FE0121B8483F
:1019100001F023FCB6F5807F5BD012DC102E40D0A6
:1019200008DC012E25D0022E29D0042E2DD0082E21
:1019300072D130E0202E3AD0402E3ED0802EF7D10A
:1019400041E0B6F5805F60D009DCB6F5007F47D096
:10195000B6F5806F4BD0B6F5006F73D14EE0B6F59B
:10196000005F5AD0B6F5804F5ED0B6F5004F69D112
:1019700061E00124002506208DF8040063E00224C4
:10198000012507208DF804005DE0042402250820CD
:101990008DF8040057E00824032509208DF8040081
:1019A00051E0102404250A208DF804004BE0202487
:1019B000052517208DF8040045E040240625172052
:1019C0008DF804003FE08024072517208DF80400DF
:1019D00039E04FF48074082517208DF8040032E0B8
:1019E0004FF40074092517208DF804002BE04FF404
:1019F00080640A2528208DF8040024E04FF4006458
:101A00000B2528208DF804001DE04FF480540C2590
:101A100028208DF8040016E014E04FF400540D2542
:101A200028208DF804000EE04FF480440E25282075
:101A30008DF8040007E04FF400440F2528208DF8AE
:101A4000040000E000BF00BF6A48874213D10121B3
:101A5000042001F0BDFDADF8006048208DF80300C2
:101A600002208DF802006946384601F0A5FA2946A1
:101A7000002001F0A7FB6048874213D10121082014
:101A800001F0A6FDADF8006048208DF803000220AB
:101A90008DF802006946384601F08EFA2946012089
:101AA00001F090FB5548874213D10121102001F02D
:101AB0008FFDADF8006048208DF8030002208DF8FE
:101AC00002006946384601F077FA2946022001F003
:101AD00079FB4B48874213D10121202001F078FD8A
:101AE000ADF8006048208DF8030002208DF8020058
:101AF0006946384601F060FA2946032001F062FB8E
:101B00004048874213D10121402001F061FDADF82A
:101B1000006048208DF8030002208DF8020069461D
:101B2000384601F049FA2946042001F04BFB3648BB
:101B3000874213D10121802001F04AFDADF80060F9
:101B400048208DF8030002208DF8020069463846CF
:101B500001F032FA2946052001F034FB2B48874278
:101B600016D10121801501F033FDADF80060482049
:101B70008DF8030002208DF802006946384601F016
:101B80001BFA204601F09AF92946062001F01AFBBB
:101B9000029400208DF80C0010208DF80D0001201B
:101BA0008DF80E0002A801F027F98DF805808DF858
:101BB000069001208DF8070001A801F044F8BDE867
:101BC000FF8710B50123002280210B48FFF794FE08
:101BD00010BD10B58021084801F081FA18B100202D
:101BE0000B49087002E001200949087010BD00008F
:101BF0000002300000080140000C014000100140CC
:101C00000014014000180140001C01400020014068
:101C10000800002070B50446002506E0681CC0B22C
:101C20000546C82801DD002070BD0221FE4801F0F4
:101C300026FF0028F2D02146FB4801F0CDFE00250A
:101C400006E0681CC0B20546C82801DD0020EBE7AD
:101C50000121F54801F013FF0028F2D0F24801F00D
:101C6000BDFEC0B2E0E770B505460C4600224FF459
:101C70000041EE4801F051FA2CB10122D102EC48AA
:101C800001F04BFA05E000224FF40061E84801F052
:101C900044FA2846FFF7BEFF0122D102E44801F0D2
:101CA0003CFA0122D103E14801F037FA70BD08B5D2
:101CB0000121042001F08CFC01210C2001F088FCA2
:101CC0004FF40040ADF8000010208DF80300032011
:101CD0008DF802006946D54801F06EF90122D10362
:101CE000D24801F01AFA4FF40060ADF800006946DE
:101CF000CF4801F061F94020ADF800006946CC48BA
:101D000001F05AF900224FF40061C94801F005FAC8
:101D100000224021C64801F000FA08BD00B587B096
:101D20000121080301F054FC8020ADF804001820C4
:101D30008DF8070003208DF8060001A9BB4801F0CB
:101D40003BF94020ADF8040001A9B84801F034F98E
:101D50002020ADF8040001A9B44801F02DF90020BD
:101D6000ADF808004FF48270ADF80A000020ADF81D
:101D70000C000220ADF80E000120ADF8100040026A
:101D8000ADF812003820ADF814000020ADF81600B0
:101D90000720ADF8180002A9A34801F047FD012172
:101DA000A14801F0E8FD07B000BD70B500241CE0BB
:101DB00004F1B001C8B20021FFF755FF0021084629
:101DC000FFF751FF00211020FFF74DFF002508E02D
:101DD000984901EBC501085D0121FFF744FF681C2C
:101DE000C5B2802DF4DB601CC4B2082CE0DB70BDF2
:101DF00070B5064600240BE0002505E08D4800EB99
:101E0000C5000655681CC5B2802DF7DB601CC4B246
:101E1000082CF1DBFFF7C9FF70BD10B5FFF747FFD6
:101E2000FFF77CFF01224021814801F076F9002173
:101E3000AE20FFF718FF00210846FFF714FF00212E
:101E40001020FFF710FF00214020FFF70CFF0021BA
:101E50008120FFF708FF0021CF20FFF704FF0021BA
:101E6000A120FFF700FF0021C020FFF7FCFE0021AA
:101E7000A620FFF7F8FE0021A820FFF7F4FE0021BE
:101E80003F20FFF7F0FE0021D320FFF7ECFE0021FA
:101E90000846FFF7E8FE0021D520FFF7E4FE002109
:101EA0008020FFF7E0FE0021D920FFF7DCFE0021B3
:101EB000F120FFF7D8FE0021DA20FFF7D4FE002141
:101EC0001220FFF7D0FE0021DB20FFF7CCFE00211F
:101ED0004020FFF7C8FE00212020FFF7C4FE0021AC
:101EE0000220FFF7C0FE00218D20FFF7BCFE00217D
:101EF0001420FFF7B8FE0021A420FFF7B4FE002154
:101F0000A620FFF7B0FE0021AF20FFF7ACFE0020B7
:101F1000FFF76EFF10BD10B500218D20FFF7A3FE67
:101F200000211420FFF79FFE0021AF20FFF79BFE4A
:101F300010BD10B500218D20FFF795FE0021102067
:101F4000FFF791FE0021AE20FFF78DFE10BDF0B52A
:101F5000144600267F2801DC3F2900DDF0BD0B463A
:101F6000CF1701EB5777FF10C7F10707FAB2CF176A
:101F700001EB5777FF10A1EBC707FDB2C5F10707CB
:101F80000123BB40DEB24CB12A4B03EBC0039B5C88
:101F90003343284F07EBC007BB5408E0254B03EB46
:101FA000C0039B5CB343234F07EBC007BB5400BF88
:101FB000D4E72DE9F04F80460C4615461E46A34651
:101FC000A5F12000C5B200274BE00C2E07D105EB90
:101FD0004500194901EB800010F8079004E017480C
:101FE00000EB051010F807904FF0000A33E009F0FD
:101FF000800028B121464046099AFFF7A8FF09E072
:10200000099808B9012000E0002002462146404618
:10201000FFF79DFF4FEA49604FEA1069601CC4B2A8
:10202000A4EB0B00B0420BE000300140000801407F
:10203000000C0140CE02002032510008A6550008D5
:1020400005D15C4608F1010000F0FF0806E00AF146
:10205000010000F0FF0ABAF1080FC8DB00BF781CCE
:10206000C7B2B742B1DBBDE8F08FF8B505460E4602
:10207000144618E07A2D03DD002506F11000C6B2E3
:102080003A2E04DD002005460646FFF7B1FE01208A
:1020900000902278102331462846FFF78AFF05F189
:1020A0000800C5B2641C20780028E3D1FFF77DFE4C
:1020B000F8BD70B504460D46C5F10700C6B206F17D
:1020C000B001C8B20021FFF7CEFD102141EA141083
:1020D0000021FFF7C8FD04F00F0141F001000021CD
:1020E000FFF7C1FD70BD2DE9F04180460E46154653
:1020F0000027701CC1B24046FFF7DBFF00240CE054
:102100006900491C2E4A02EB4111085D0121FFF7CD
:10211000AAFD781CC7B2601CC4B2102CF0DB31469B
:102120004046FFF7C6FF00240AE0254A02EB85116E
:10213000085D0121FFF797FD781CC7B2601CC4B28F
:10214000102CF2DBBDE8F0812DE9F05F06460F466A
:1021500090461C46DDF828A04FF0000BE11704EB79
:102160005171C910A4EBC10131B92046E11704EB4C
:102170005171C1F3C70506E02046E11704EB517128
:10218000C910491CCDB23D4615E029463046FFF73F
:1021900090FFB1460BE059460BF1010B1AF8010014
:1021A0000121FFF760FD09F1010000F0FF09C145C1
:1021B000F1DB681CC5B2A542E7DBBDE8F09F00007B
:1021C000965B00082DE9FF4105460E4617460024A0
:1021D0000CE0285DFEF766FF022C05DB285DFF287A
:1021E00002D15520FEF75EFF601C84B2B442F0DBE2
:1021F0000FB9BDE8FF812868029068680390F9482C
:102200000021018036E0F7480078C82819DAF6483E
:10221000007878B3F448801D01680091406801900F
:102220000020F14908709DF80C109DF80400401E34
:1022300081421FD19DF80D009DF80510884219D1EB
:102240001CE00020E749087000240CE0285DFEF740
:1022500029FF022C05DB285DFF2802D15520FEF75F
:1022600021FF601C84B2B442F0DBDE484078401CA1
:10227000DC494870DB4840780328C4DB00BF00BF5E
:10228000B7E710B502460B460AB1002B01DC00206F
:1022900010BD0024022103E0505C2044C4B2491C5C
:1022A000581E8842F8DC2046F2E70EB5CF48016898
:1022B0000091416801910089ADF808009DF8040083
:1022C0008DF804000921CA48FFF7DBFF8DF80900EB
:1022D00000220921C648FFF775FF9DF80800012874
:1022E00004D0022806D003280CD107E0C1A002F0D8
:1022F000CFFC08E0C8A002F0CBFC04E0CEA002F0C6
:10230000C7FC00E000BF00BF0EBD10B5D348007889
:10231000D3494871D1480078401CD0490870042046
:10232000CF490872CF4800784872CE484178CC48EF
:102330008172CC488178CA48C172CA48C178C848FD
:102340000173C8488188C648A0F80D10C648417876
:10235000C3480174C4488178C1484174C2480178B7
:10236000BF48C1731521FFF78CFFBD4908750022D6
:102370001521BB48FFF726FFBCA002F089FC10BD69
:1023800010B59B49994802680A6042684A60007A21
:10239000087208460079401C087109219448FFF72B
:1023A00070FF93490872002209219148FFF70AFF44
:1023B0008F48002101604160017210BD10B5FFF728
:1023C000A4FF10BD01B581B0694601AA507808701C
:1023D00010784870BDF900000CBD10B586B0FFF74D
:1023E000CFFF1122814901A802F072FB9DF80D0078
:1023F00008287BD006DC012809D0022823D0042835
:1024000072D15BE0102870D02028F9D198E09DF8B7
:102410000E00944908709DF80E0038B9002211464C
:102420001046FEF727FD98A002F032FC9DF80E0042
:10243000012807D100221146FE20FEF71BFD96A0C1
:1024400002F026FC94E09DF80E00864908709DF885
:102450000E0028B900209449087094A002F018FCDE
:102460009DF80E0002280AD101208F4908704622EB
:102470000021FE20FEF7FEFC92A002F009FC9DF870
:102480000E0004280AD10120874908700022462145
:10249000FE20FEF7EFFC91A002F0FAFB9DF80E0083
:1024A00006280AD10120804908701E221146EE201C
:1024B000FEF7E0FC8FA002F0EBFB59E07A480078D1
:1024C000012800D154E09DF80F0066494870084685
:1024D00041788DA002F0DCFB624B9A78D97858786D
:1024E000FEF7C8FC44E001E041E014E06E480078EB
:1024F000012800D13CE09DF810005A498870084638
:10250000817888A002F0C4FB564B9A78D978587825
:10251000FEF7B0FC2CE064480078012800D127E0E9
:102520009DF811004F49C8700846C17884A002F098
:10253000AFFB4C4B9A78D9785878FEF79BFC17E0A4
:10254000BDF8120047498880898808B2FFF73AFF32
:102550000446214681A002F09BFB4249898808B2CB
:10256000FFF730FF84B22046FFF7BBF800E000BF62
:1025700000BFFFF7CAFE142101A802F0C2FA06B09C
:1025800010BD00B585B011221849684602F0A0FAC6
:102590009DF80800012804D0022805D0042807D19E
:1025A00005E0FFF71AFF04E0FFF708FF01E000E095
:1025B00000BF00BF05B000BD70B505460E46002443
:1025C0000CE0285DFEF77CFD022C05DB285DFF2872
:1025D00002D15520FEF774FD601C84B2B442F0DBDA
:1025E00070BD0000000000204000002046010020D7
:1025F00092020020573244204572726F7220436F5E
:102600006D6D616E64202D3E4572726F725F416325
:102610006B53756D0D0A0000573244204572726F7E
:102620007220436F6D6D616E64202D3E4572726F36
:10263000725F436D640D0A00573244204572726F19
:102640007220436F6D6D616E64202D3E4572726F16
:10265000725F4F746865720D0A0000000E00002062
:10266000B9020020020000200800002050726F5FB5
:102670004432575F5265706F72744465765374616B
:102680007475730D0A0000005365744C45445F4F28
:102690006666200D0A0000005365744C45445F4F88
:1026A0006E200D0A00000000180000205365744CD5
:1026B0004544204C45445F436F73746F6D200D0A91
:1026C000000000005365744C4544204C45445F595C
:1026D000656C6C6F77200D0A000000005365744C28
:1026E0004544204C45445F507572706C65200D0A5E
:1026F000000000005365744C4544204C45445F5035
:10270000696E6B200D0A000057324420436F6E74CF
:10271000726F6C204C45445F52203D202564200D93
:102720000A00000057324420436F6E74726F6C20B1
:102730004C45445F47203D202564200D0A000000E1
:1027400057324420436F6E74726F6C204C45445F67
:1027500042203D202564200D0A000000573244200D
:10276000436F6E74726F6C204D6F746F72203D20DA
:102770002564200D0A00000010B5824982480268D5
:102780000A6042684A60007A0872084640797F49C8
:1027900048714B217D48FFF774FD7C4981F84A0060
:1027A00000224B217948FFF70DFD4B217748FFF7B9
:1027B00003FF77A002F06CFA7AA002F069FA7CA01D
:1027C00002F066FAAFF2B41002F062FA7BA002F0F7
:1027D0005FFA77A002F05CFAAFF2C81002F058FA84
:1027E00076A002F055FA77A002F052FAAFF2DC10B0
:1027F00002F04EFA76A002F04BFA72A002F048FA0C
:10280000AFF2F01002F044FA74A002F041FA77A09F
:1028100002F03EFAAFF2042002F03AFA10BD1CB505
:102820000020009001907A480021C0F8061100783D
:10283000002853D076484079001D754981F806027A
:10284000084690F80622811D4F4802F041F9704871
:10285000D0F806110091D0F80A0101904FF4807170
:102860006B48801D02F04DF9002069490870A1F8FD
:102870000300084690F806124348FFF702FD0146A0
:10288000634890F80602401E3F4A105C814202D025
:10289000FFF70BFD1CBD9DF80400072810D004DCD9
:1028A000012807D0032817D107E00D280ED01128E2
:1028B00012D10EE0FFF760FF0FE0FFF762FE0CE0C1
:1028C000FFF75EFD53A002F0E3F906E0FFF71DFD00
:1028D00003E0FFF7EAFC00E000BF00BF00BFD9E75C
:1028E00010B55249284802680A6042684A60028965
:1028F0000A81807A8872FFF743FD4C4800890828D6
:1029000018D006DC012809D002280BD004281DD1DC
:102910000CE0102812D0202818D113E044A002F0B7
:10292000B7F914E048A002F0B3F910E04CA002F0AF
:10293000AFF90CE050A002F0ABF908E054A002F0AF
:10294000A7F904E058A002F0A3F900E000BF00BF1F
:1029500010BDFFF715FD5AA002F09AF9012080F38F
:10296000138800BF00BF5D48006800F4E0605C4968
:102970000843001D59490860BFF3408F00BF00BFE6
:10298000FEE70000920200204601002047020020DE
:102990005732445F4765744D6375496E666F2E2EDE
:1029A0002E0D0A0050524F5F5645523A000000006B
:1029B00030303030303030340000000050305F565E
:1029C00045523A00303030303030303100000000B5
:1029D000534F46545F5645523A00000050524F4400
:1029E0005543545F4B45593A00000000366633307A
:1029F00037346665343338393435343761346631C9
:102A00003331346264376533616530620000000041
:102A10004000002050726F5F5732445F486561721A
:102A20007462656174202E2E2E0D0A009B02002018
:102A300057324D2D3E576966695F536F667441503A
:102A40004D6F64650D0A000057324D2D3E57696683
:102A5000695F53746174696F6E4D6F64650D0A0030
:102A600057324D2D3E576966695F436F6E666967E1
:102A70004D6F64650D0A000057324D2D3E57696653
:102A8000695F42696E64696E674D6F64650D0A0027
:102A900057324D2D3E576966695F436F6E6E526FB8
:102AA000757465720D0A000057324D2D3E576966E8
:102AB000695F436F6E6E436C6F7564730D0A00003F
:102AC0005732445F526571756573745265736574EE
:102AD0004465766963652E2E2E0D0A000CED00E02C
:102AE0000000FA050CB500200190009048480068ED
:102AF00040F480304649086000BF4548006800F453
:102B0000003000900198401C0190009818B901987D
:102B1000B0F5A06FF1D13E48006800F4003010B16C
:102B20000120009001E0002000900098012844D18D
:102B30003848006840F010003649086008460068D0
:102B400020F0030008600846006840F002000860BA
:102B50002F4840682E49486008464068486008464B
:102B6000406840F4806048600846406820F47C106B
:102B700048600846406840F4E8104860084600682D
:102B800040F08070086000BF2148006800F00070CD
:102B90000028F9D01E48406820F003001C49486016
:102BA0000846406840F00200486000BF184840688E
:102BB00000F00C000828F9D101E000BFFEE70CBDD1
:102BC00010B5FFF78FFF10BD10B51148006840F039
:102BD00001000F490860084640680F4908400C4949
:102BE0004860084600680D490840094908600846E1
:102BF000006820F4802008600846406820F4FE0049
:102C000048604FF41F008860FFF7DAFF10BD000036
:102C100000100240002002400000FFF8FFFFF6FE17
:102C200005480047FEE7FEE7FEE7FEE7FEE7FEE7B2
:102C3000FEE7FEE7FEE7FEE7ED000008314901434D
:102C4000314A1160704770B5002100230F22C4780B
:102C500004B32D4C246804F4E064C4F5E064210A54
:102C6000C1F10403CA40447804FA03F184781440A3
:102C700021430901254C0678A155047804F01F056D
:102C80000124AC4005786D11AD0005F1E025C5F8D3
:102C9000004109E0047804F01F050124AC401C4DFC
:102CA0000678761145F8264070BD1A4A0A4002435C
:102CB000154B1B1F1A60704739B1134A121D126859
:102CC0000243114B1B1D1A6006E00F4A121D1268C9
:102CD00082430D4B1B1D1A607047042808D14FF02A
:102CE000E021096941F004014FF0E022116107E0A1
:102CF0004FF0E021096921F004014FF0E022116159
:102D0000704700000000FA050CED00E000E400E070
:102D100080E100E080FFFF1F10B5012000F08CFC77
:102D2000002000F089FC10BD2A490860704729493D
:102D3000091F0860704727498431086070470146C1
:102D40000020254A10884FF67F4210400843224A4F
:102D500010807047014600201F4A10884FF680728D
:102D6000104008431C4A1080704708B500220092AA
:102D7000194A2C3A0092009A02440092009A11607B
:102D800008BD08B501460020009013482C3800907B
:102D90000098084400900098008808BD0D489C30B9
:102DA0000068C0B270470C480830008840F001004D
:102DB00009490831088070470648A0300068C0B251
:102DC000704705480830008840F002000249083189
:102DD0000880704704860D422C6C00400020444956
:102DE0000860091D0860091D0860091D0860414848
:102DF0003F4914310860704700213D498279002A1B
:102E00003AD00A46126803689A430B461A600A1DB4
:102E1000126803689A430B1D1A60027911440A680C
:102E200003681A430A60324A0832126803689A43F8
:102E30002F4B08331A601A1D126803689A432C4BF3
:102E40000C331A604279102A0ED11A1F12680368D7
:102E50001A43274B08331A601A1D126803681A4375
:102E6000234B0C331A600DE02149427911440A6862
:102E700003681A430A6005E0027911440A6803688E
:102E80009A430A6070470021016001710C21417171
:102E90000021817170471649103109680143144AB5
:102EA00010321160704701460020114A1432126836
:102EB0000A400AB1012000E0002070470C4914319B
:102EC00008607047014600200022094B1B6803EA96
:102ED0000102074B14331B680B4013B10AB10120E8
:102EE00000E000207047024914310860704700007C
:102EF00000040140FFFF0F0010B50446C44884429F
:102F000008D10121042000F07DFB0021042000F005
:102F100079FB46E0BF48844208D10121082000F037
:102F200071FB0021082000F06DFB3AE0BA488442B2
:102F300008D10121102000F065FB0021102000F0D5
:102F400061FB2EE0B548844208D10121202000F029
:102F500059FB0021202000F055FB22E0B0488442BC
:102F600008D10121402000F04DFB0021402000F05D
:102F700049FB16E0AB48844208D10121802000F0D3
:102F800041FB0021802000F03DFB0AE0A64884427E
:102F900007D10121801500F035FB0021A01500F0BC
:102FA00031FB10BD10B50121084600F02BFB0021BC
:102FB000012000F027FB10BD2DE9F041024600255D
:102FC0000026002000230024002791F803C00CF005
:102FD0000F0591F803C00CF0100CBCF1000F03D0EA
:102FE00091F802C04CEA050591F800C0BCF1000F51
:102FF00031D0146800202BE04FF0010C0CFA00F3E4
:10300000B1F800C00CEA03069E4220D183004FF0C5
:103010000F0C0CFA03F7BC4305FA03FC4CEA04045A
:1030200091F803C0BCF1280F06D14FF0010C0CFA47
:1030300000FCC2F814C00AE091F803C0BCF1480FCC
:1030400005D14FF0010C0CFA00FCC2F810C0401C76
:103050000828D1D31460B1F800C0BCF1FF0F34DDF3
:10306000546800202EE000F1080C4FF0010808FA27
:103070000CF3B1F800C00CEA03069E4221D1830094
:103080004FF00F0C0CFA03F7BC4305FA03FC4CEAB3
:10309000040491F803C0BCF1280F05D100F1080C1D
:1030A00008FA0CF8C2F8148091F803C0BCF1480F7C
:1030B00007D100F1080C4FF0010808FA0CF8C2F82B
:1030C0001080401C0828CED35460BDE8F0814FF634
:1030D000FF710180022181700421C1707047024696
:1030E000002093680B400BB1012000E000207047E6
:1030F0000146886880B2704702460020D3680B40C2
:103100000BB1012000E0002070470146C86880B282
:10311000704701617047416170470AB1016100E089
:1031200041617047C16070474FF480320A43826149
:1031300081618261826982697047024600203B4B4F
:1031400018684FF68073184040EA02100843374B66
:10315000186070473649C8617047F0B50A460023C9
:10316000002400210025314E7168C0F3034583B26D
:1031700000F44016B6F5401F08D121F070612B4EC7
:10318000766826F07066294F7E6012E000F48016A3
:10319000B6F5801F06D1032606FA05F4A14341F0D7
:1031A000706106E0460D360103FA06F6B14341F0C0
:1031B000706122B1460D360103FA06F631431B4E0B
:1031C0007160F0BD30B500228B071C0F0F2303FA8E
:1031D00004F2164B08338C1053F824309343134CED
:1031E00008348D1044F8253023468C1053F82430D1
:1031F0008C07240F00FA04F423430C4C08348D1080
:1032000044F8253030BD0A49DC31086070470000C1
:1032100000080140000C0140001001400014014072
:1032200000180140001C0140002001400000014046
:103230000000204210B50121080700F0F0F900213C
:103240004FF0805000F0EBF910BD2749086270473D
:1032500025490861704701460020244A106820F083
:10326000E0000843106070471F49A03108607047B4
:1032700010B5024600201D4B186820F003001043D3
:1032800018601B4B1B6843F00403194C2360012991
:1032900001D130BF00E020BF10BD1448006840F0ED
:1032A0000400124908600846006840F00200086007
:1032B0000F48006840F004000D49086000BF00BFDF
:1032C00030BF704701460020084A52680A400AB1E0
:1032D000012000E0002070470449096841EA8001AC
:1032E000024A11607047000000000E42007000406A
:1032F00010ED00E0DF48006840F00100DD490860A3
:1033000008464068DC490840DA49486008460068D9
:10331000DA490840D74908600846006820F4802050
:1033200008600846406820F4FE0048604FF41F0023
:1033300088607047CF49096821F48031CD4A116017
:103340001146096821F480211160B0F5803F03D057
:10335000B0F5802F0ED106E0C649096841F48031EE
:10336000C44A116007E0C349096841F4A021C14A79
:10337000116000E000BF00BF704710B50146002299
:10338000002300204A11012A02D1BA4C236806E02A
:10339000022A02D1B74C236A01E0B64C636A01F0FD
:1033A0001F02012494401C400CB1012000E00020C9
:1033B00010BD38B5002000900024002500BF31204A
:1033C000FFF7DBFF05460098401C00900098B0F521
:1033D000A06F01D0002DF2D03120FFF7CEFF08B151
:1033E000012400E00024204638BD01460020A14A07
:1033F000106820F0F80040EAC10010607047A04952
:1034000008607047024600209A4B586820F47C10F0
:1034100042EA01031843974B586070479849086681
:10342000704701460020934A506820F0030008438B
:10343000506070478F48406800F00C0070470146AC
:1034400000208C4A506820F0F0000843506070471C
:1034500001460020874A506820F4E060084350602D
:10346000704701460020834A506820F4605040EACB
:10347000C1005060704729B17E4A527A02437D4BA9
:103480005A7204E07B4A527A82437A4B5A727047EE
:103490007B49D8310860704701460020754A506862
:1034A00020F440400843506070470021714A2032A8
:1034B0001170704A82F82010012802D004280AD125
:1034C00004E001216B4A2032117005E00521694AB0
:1034D0002032117000E000BF00BF704769490860EA
:1034E00070476449096A0143624A1162704765493D
:1034F00044390860704730B50021002200240023C1
:103500005C4D6D6805F00C0121B1042905D0082936
:1035100023D105E05C4D056022E05B4D05601FE0B6
:10352000544D6D6805F47012524D6D6805F4803489
:10353000022505EB92421CB9544D554305600BE042
:103540004C4D6D6805F400351DB1504D5543056077
:1035500002E04D4D5543056002E04B4D056000BF54
:1035600000BF444D6D6805F0F0010909484D6B5CE2
:103570000568DD4045603F4D6D6805F4E061090A6E
:10358000434D6B5C4568DD4085603A4D6D6805F4E0
:103590006051C90A3E4D6B5C4568DD40C560354DE4
:1035A0006D6805F44041890B3A4D6B5CC568B5FB0D
:1035B000F3F5056130BD29B12E4A526902432D4B06
:1035C0005A6104E02B4A526982432A4B5A61704780
:1035D00029B1284A92690243264B9A6104E0254AA0
:1035E00092698243234B9A61704729B1214AD2697B
:1035F0000243204BDA6104E01E4AD26982431D4B2C
:10360000DA61704729B11B4AD2680243194BDA606C
:1036100004E0184AD2688243164BDA60704729B139
:10362000144A12690243134B1A6104E0114A1269E9
:103630008243104B1A617047124940390860704745
:103640000F49C86470470B49C87170470948406A00
:1036500040F0807007494862704701460020054AE3
:1036600092680A400AB1012000E000207047014939
:1036700088727047001002400000FFF8FFFFF6FE5E
:10368000000042428004424200127A0000093D00DC
:103690002B0000203B00002029B1504A1288024331
:1036A0004E4B1A8004E04D4A128882434B4B1A80DD
:1036B00070474A48001D008840F010004749091D26
:1036C000088070474548001D00884FF6EF7108409C
:1036D0004249091D08807047002140481C3001887C
:1036E000001F008841EA0040704700B50246FFF71E
:1036F000E0FF100C394918310880091D0A80FFF7D6
:10370000E1FF00BD00B50246FFF7D3FFC2F303405F
:10371000324908310880091D0A80FFF7D3FF00BD38
:1037200000B50246FFF7C5FF100C2C492031088078
:10373000091D0A80FFF7C6FF00BD00202749103190
:1037400009880907080B254914310988084370477F
:1037500000BF2248001D008800F020000028F8D09B
:1037600070471E48001D00884FF6F77108401B493E
:10377000091D088000BF1948001D008800F00800DE
:103780000028F8D0704701460020144A121D128804
:103790000A400AB1012000E0002070470F49091DCE
:1037A000098881430D4A121D11807047014600208F
:1037B0000A4A121D12880A40D0B2084A12880A40EA
:1037C00012B108B1012000E0002070470349091D33
:1037D00009888143014A121D11807047002800406A
:1037E00010B50446BE48844208D101218014FFF779
:1037F00009FF0021A014FFF705FF16E0B948844235
:1038000008D101210014FFF70AFF00212014FFF75F
:1038100006FF0AE0B448844207D10121C013FFF734
:10382000FEFE0021E013FFF7FAFE10BD10B50022E6
:10383000028802F441520B884C8823438C8823432E
:10384000CC8823430C8923434C8923438C8923430D
:10385000CC8923431A430280838B4FF2FF742340A9
:1038600083830B8A038210BD2DE9F04F85B0054696
:103870000C464FF0000902274FF000084FF0010BF3
:103880000026B246A88B4FF240010840A8830220D0
:103890002884B5F81C90A068022801D100BF38E048
:1038A000A08810B94FF0010B01E04FF0020B8D48DA
:1038B000854200D100E000BF6846FFF71CFEDDF83E
:1038C00000A0E088B0F5007F0AD14FEA1A2000EB93
:1038D00080004000A168B0FBF1F0401D86B20BE013
:1038E0004FEA4B10BAFBF0F000EB80004000A168FB
:1038F000B0FBF1F0401D86B20A20B6FBF0F606F0F0
:103900000108A6EB0800C0F34F074FF6FF7000EA6E
:103910000828022F01DBFF2F02DD02274FF00008ED
:10392000E08840EA080038432884A088A189084339
:10393000618808432188084340F4006040EA09098F
:10394000A5F81C9005B0BDE8F08F002101804180F2
:103950008180C180018141818181C18107210182F2
:1039600070470021018041808180C18002218160F7
:1039700000218181704721B1028842F0400202801B
:1039800004E002884FF6BF731A400280704721B1ED
:10399000828B42F48062828304E0828B4FF6FF3395
:1039A0001A408283704730B5002400230C11012592
:1039B000A540ABB21AB185881D43858002E0858899
:1039C0009D43858030BD1AB183880B43838002E01C
:1039D00083888B4383807047818170470146888943
:1039E00070474FF6FF62914204D0028842F4807221
:1039F000028004E002884FF6FF631A40028070479D
:103A000021B1828842F00402828004E082884FF66D
:103A1000FB731A408280704702884FF2FF731A408E
:103A2000028002880A4302807047018841F4805175
:103A30000180704721B1028842F40052028004E004
:103A400002884DF6FF731A4002807047024600203C
:103A5000012901D0108B00E0908A70470146088A46
:103A60007047B1F5804F04D1028842F48042028051
:103A700004E002884BF6FF731A400280704702464A
:103A8000002013890B400BB1012000E0002070479B
:103A9000CA4302817047F0B502460020002400238B
:103AA000002501F00F070126BE40B4B20B1101261C
:103AB0009E40B3B2968806EA03051689264016B1E1
:103AC0000DB1012000E00020F0BD10B5002201F092
:103AD0000F040123A3409AB2D343038110BD000019
:103AE0000030014000380040003C004010B5044662
:103AF000FE48844208D10121C014FFF783FD002154
:103B0000E014FFF77FFD52E0B4F1804F08D10121AE
:103B10000846FFF784FD00210120FFF780FD46E005
:103B2000F348844208D101210220FFF778FD0021EB
:103B30000220FFF774FD3AE0EE48844208D10121EB
:103B40000420FFF76CFD00210420FFF768FD2EE044
:103B5000E948844208D101210820FFF760FD0021D7
:103B60000820FFF75CFD22E0E448844208D10121EF
:103B70001020FFF754FD00211020FFF750FD16E044
:103B8000DF48844208D101212020FFF748FD0021B1
:103B90002020FFF744FD0AE0DA48844207D10121E2
:103BA0004014FFF72FFD00216014FFF72BFD10BD1F
:103BB000028802F08F020280CA884B881A43038869
:103BC0001A4302808A8882850A880285C74A904201
:103BD00002D0CC4A904201D10A7A02860122828226
:103BE000704770B5002400220023058C4FF6FE7646
:103BF00035400584028C8388048B4FF68C752C40ED
:103C00000D882C43751E2A400D892A434D882A436E
:103C1000B64DA84202D0BB4DA84213D14FF6F7755E
:103C20002A404D892A434FF6FB752A408D882A4346
:103C300047F6FF652B4047F6FF552B408D892B43F8
:103C4000CD892B4383800483CD888586028470BD13
:103C500070B5002400220023058C4FF6EF76354026
:103C60000584028C8388048B48F6FF452C400D8820
:103C70004FF6FF7606EA05252C434FF6DF752A40FE
:103C80000D8906EA05152A434D8806EA05152A43DB
:103C9000964DA84202D09B4DA8421DD14FF67F758C
:103CA0002A404D894FF6FF7606EA05152A434FF65E
:103CB000BF752A408D8806EA05152A4347F6FF3569
:103CC0002B4047F2FF752B408D8906EA85052B4373
:103CD000CD8906EA85052B4383800483CD8805873B
:103CE000028470BD70B5002400220023058C4FF6BD
:103CF000FF6635400584028C8388848B4FF68C7573
:103D00002C400D882C434FF6FF552A400D894FF665
:103D1000FF7606EA05252A434D8806EA05252A434B
:103D2000724DA84202D0774DA8421DD14FF2FF75C7
:103D30002A404D894FF6FF7606EA05252A434FF6BD
:103D4000FF352A408D8806EA05252A4346F6FF7589
:103D50002B4045F6FF752B408D8906EA05152B4350
:103D6000CD8906EA05152B4383808483CD8885871A
:103D7000028470BD70B5002400220023058C4EF62D
:103D8000FF7635400584028C8388848B48F6FF4596
:103D90002C400D884FF6FF7606EA05252C434DF69C
:103DA000FF752A400D8906EA05352A434D8806EA43
:103DB00005352A434D4DA84202D0524DA84207D1A5
:103DC000C3F30D038D894FF6FF7606EA85152B4365
:103DD00083808483CD88A0F84050028470BD828B9C
:103DE0004FF2FF331A408283828B4FF6FF7303EA50
:103DF00001231A4382837047F0B50C461546002113
:103E000000220026078C4EF6FF7C07EA0C07078489
:103E1000818B028C4FF6FF7707EA043640F6FF47A6
:103E200039404FF6FF7707EA052739434FF6FF770A
:103E300007EA033739434DF6FF773A4046F4805797
:103E40003A4381830284F0BD828B4FF6F3731A40AC
:103E50008283828B0A4382837047F0B50C461546F5
:103E6000002100220026078C4FF6FF6C07EA0C07A2
:103E70000784818B028C4FF6FF7707EA04264FF602
:103E80000C7739404FF6FF7707EA03172F43394382
:103E90004FF6FF573A4046F480773A4381830284D5
:103EA000F0BD028B4FF2FF331A400283028B4FF6B4
:103EB000FF7303EA01231A4302837047F0B50C46EF
:103EC0001546002100220026078C4FF6EF7C07EAFA
:103ED0000C070784018B028C4FF6FF7707EA041664
:103EE00040F6FF4739404FF6FF770DE0002C0140C8
:103EF0000004004000080040000C0040001000409A
:103F0000001400400034014007EA033739434FF6FC
:103F1000FF7707EA052739434FF6DF773A4046F047
:103F200010073A4301830284F0BD028B4FF6F3730E
:103F30001A400283028B0A4302837047F0B50C4695
:103F4000154600210022068C4FF6FE773E4006847F
:103F5000018B028C4FF60C7631407E1C06EA03166C
:103F60002E4331437E1E324044F00106324301832A
:103F70000284F0BD70B505460C46208850B92389EF
:103F8000A28861882846FFF7D9FFE1882846FFF715
:103F9000CCFF25E0208804280AD12389A2886188E3
:103FA0002846FFF78BFFE1882846FFF77AFF17E0E6
:103FB000208808280AD12389A28861882846FFF72B
:103FC0004CFFE1882846FFF73FFF09E02389A288DC
:103FD00061882846FFF710FFE1882846FFF7FFFEBB
:103FE00070BD2DE9F04105460C460026012760888A
:103FF00008B9022600E00026A088012801D1022786
:1040000000E001272088A0B92389A288618828467A
:10401000FFF794FFE1882846FFF787FF23893A4698
:1040200031462846FFF74AFFE1882846FFF739FF67
:1040300013E02389A28861882846FFF73FFFE188C3
:104040002846FFF72EFF23893A4631462846FFF7D8
:1040500075FFE1882846FFF768FFBDE8F0810A8810
:104060004B881A438B881A43CB881A430B891A430F
:104070004B891A438B891A43A0F8442070474FF6A6
:10408000FF71818000210180C180418001727047F1
:104090000021018041808180C18001814181818135
:1040A000C181704700210180418001218180002170
:1040B000C180018170470021018041808180C180E1
:1040C000018141818181704721B1028842F0010262
:1040D000028004E0028840F2FE331A4002807047FA
:1040E00031B1B0F8442042F40042A0F8442005E089
:1040F000B0F84420C2F30E02A0F8442070471AB171
:1041000083890B43838102E083898B4383817047DA
:104110008182704741EA0203A0F8483070471AB123
:1041200083890B43838102E083898B4383817047BA
:1041300001894FF6F8721140018170470A4600214B
:1041400001894FF68F73194011430181704730B5D3
:1041500004460D4629462046FFF7F0FF208940F02F
:104160000700208130BD2DE9F04104460D4616467A
:104170001F46602D06D13B46012231462046FFF7FF
:104180009DFE05E03B46012231462046FFF7D6FE64
:1041900029462046FFF7D2FF208940F00700208102
:1041A000BDE8F08130B50C4600210189C9B24FF657
:1041B000FF7505EA0325154325432943018130BDD9
:1041C0002DE9F04105460E46174698460024434621
:1041D0003A4631462846FFF7E5FF2C894FF6F8703E
:1041E000044044F007044FF68F70044044F070041C
:1041F0002C81BDE8F081F0B504460D4616461F46F9
:104200003B46324629462046FFF7CCFF208940F442
:1042100080402081F0BD0185828270470A460021DE
:10422000018840F28F331940114301807047F0B587
:104230000C4615461E460021002200230189028BF0
:10424000038C4FF6F877394021434FF6FC473A404C
:1042500040F201173A434FF6DD773B404FF6FF77C8
:1042600007EA06172F433B43018102830384F0BD15
:104270000A460021018B4FF68F73194011430183C9
:1042800070470A460021018B48F6FF7319404FF62C
:10429000FF7303EA02231943018370470A46002192
:1042A000818B4FF68F7319401143818370470A4603
:1042B0000021818B48F6FF7319404FF6FF7303EA24
:1042C000022319438183704721B1028842F08002A2
:1042D000028004E0028840F27F331A400280704777
:1042E00021B1828842F00402828004E082884FF685
:1042F000FB731A408280704721B1828842F0080225
:10430000828004E082884FF6F7731A4082807047FB
:1043100021B1828842F00102828004E082884FF657
:10432000FE731A40828070470A460021018B4FF6C7
:10433000F77319401143018370470A460021018B2E
:104340004FF2FF7319404FF6FF7303EA022319433C
:10435000018370470A460021818B4FF6F77319409D
:104360001143818370470A460021818B4FF2FF730E
:1043700019404FF6FF7303EA022319438183704704
:104380000A460021018B4FF6FB731940114301834C
:1043900070470A460021018B4FF6FF3319404FF654
:1043A000FF7303EA02231943018370470A46002181
:1043B000818B4FF6FB7319401143818370470A4686
:1043C0000021818B4FF6FF3319404FF6FF7303EA4C
:1043D00002231943818370470A460021018B4FF65F
:1043E0007F7319401143018370470A460021018BF6
:1043F000C1F30E014FF6FF7303EA02231943018351
:1044000070470A460021818B4FF67F731940114394
:10441000818370470A460021818BC1F30E014FF65C
:10442000FF7303EA02231943818370470A46002180
:10443000018C4FF6FD7319401143018470470A4601
:104440000021018C4FF6F773194011430184704726
:104450000A460021018C4FF6DF7319404FF6FF73B7
:1044600003EA02131943018470470A460021018CB4
:104470004FF67F7319404FF6FF7303EA0213194397
:10448000018470470A460021018C4FF6FF53194002
:104490004FF6FF7303EA02231943018470470A466B
:1044A0000021018C4FF2FF7319404FF6FF7303EAAE
:1044B00002231943018470470A460021018C4DF6FE
:1044C000FF7319404FF6FF7303EA02331943018467
:1044D000704730B5002301248C40A3B2048C9C4368
:1044E0000484048C02FA01F5ADB22C43048430BD7F
:1044F00030B5002304248C40A3B2048C9C43048474
:10450000048C02FA01F5ADB22C43048430BD70B5C1
:104510000346002000241846183001258D40ACB217
:104520001D8CA5431D8409B108290AD100EB610047
:1045300005684FF68F7635400560056815430560C0
:104540000FE00D1FC5F34E052844056848F6FF76B9
:104550003540056005684FF6FF7606EA02263543CA
:10456000056070BD21B1028842F00202028004E0C1
:10457000028840F2FD331A400280704721B1028860
:1045800042F00402028004E0028840F2FB331A4049
:104590000280704721B1828842F08002828004E06C
:1045A00082884FF67F731A4082807047028840F2FB
:1045B000F7331A40028002880A43028070478288DB
:1045C0004FF68F731A40828082880A438280704738
:1045D00002894FF6F8731A40028102890A43028168
:1045E000704702894FF67F731A40028102890A439D
:1045F000028170478184704781857047818670474A
:104600000187704781877047A0F840107047028883
:10461000D2B2028002880A43028070470146888E27
:1046200070470146088F70470146888F70470146E2
:10463000B1F8400070470146888C70470146088DEC
:10464000704702460020138A0B400BB1012000E0A6
:1046500000207047CA430282704730B502460020EE
:1046600000230024158A05EA0103958905EA01045F
:1046700013B10CB1012000E0002030BDCA4302821A
:104680007047000010B50446E248844209D1012178
:104690008803FEF7B7FF00214FF48040FEF7B2FF1A
:1046A00032E0DD48844209D101214804FEF7B7FF1A
:1046B00000214FF40030FEF7B2FF25E0D7488442D6
:1046C00009D101218804FEF7AAFF00214FF48020C0
:1046D000FEF7A5FF18E0D248844209D10121C804A1
:1046E000FEF79DFF00214FF40020FEF798FF0BE03E
:1046F000CC48844208D101210805FEF790FF002133
:104700004FF48010FEF78BFF10BD2DE9F04786B007
:1047100005460E460024A24600BF00BF0027B08910
:1047200000B100BF2F462C8A4CF6FF700440F08881
:1047300004432C82AC894EF6F3100440B0883189D2
:104740000843718908430443AC81AC8A4FF6FF40AB
:104750000440B0890443AC8201A8FEF7CCFEAD480A
:10476000874202D1DDF810A001E0DDF80CA00AEBD1
:10477000CA0000EB0A1031688900B0FBF1F8642030
:10478000B8FBF0F004012009642101FB10893220FC
:1047900000EB0910B0FBF1F000F00F0004432C8196
:1047A00006B0BDE8F0874FF416510160002181800A
:1047B000C18001810C21418100218181704710B5A8
:1047C00002460020108A4FF2FF0318400B884C88E5
:1047D00023438C882343CC8823431843108210BD85
:1047E0000021018041808180C180704721B1828990
:1047F00042F40052828104E082894DF6FF731A4030
:1048000082817047F0B50346002400260025002071
:1048100040F66A17B94200D100BF1846C1F34214EE
:1048200001F01F06012707FA06F5012C01D10C3013
:1048300004E0022C01D1103000E014301AB10768F6
:104840002F43076002E00768AF430760F0BD1AB16D
:10485000838A0B43838202E0838A8B43838270477F
:10486000028A4FF6F0731A400282028A0A430282D9
:10487000704782894FF2FF731A40828182890A430E
:104880008281704721B1828942F00202828104E074
:1048900082894FF6FD731A4082817047028A4FF673
:1048A000DF731A400282028A0A430282704721B1F2
:1048B000028A42F48042028204E0028A4BF6FF73CD
:1048C0001A4002827047C1F3080282807047014695
:1048D0008888C0F308007047818941F00101818117
:1048E0007047028BD2B20283028B42EA012202831A
:1048F0007047028B02F47F420283028B0A430283D9
:10490000704721B1828A42F02002828204E0828ACA
:104910004FF6DF731A408282704721B1828A42F0DB
:104920001002828204E0828A4FF6EF731A4082827C
:10493000704721B1828A42F00802828204E0828AB2
:104940004FF6F7731A4082827047828A4FF6FB73E4
:104950001A408282828A0A438282704721B1828A07
:1049600042F00202828204E0828A4FF6FD731A400E
:104970008282704702460020B1F5007F00D100BF5F
:1049800013880B400BB1012000E00020704701F4B8
:104990000072B2F5007F00D100BFCA4302807047A9
:1049A00070B50246002400230025002040F66A1658
:1049B000B14200D100BFC1F3421501F01F0301262F
:1049C00006FA03F3012D02D19689334006E0022D49
:1049D00002D1168A334001E0968A33400C12012638
:1049E00006FA04F41688344013B10CB1012000E03B
:1049F000002070BD10B50022002340F66A14A142C9
:104A000000D100BF0A1201249440A3B2DC43048009
:104A100010BD000000380140004400400048004044
:104A2000004C00400050004038B5D0E90221491E3A
:104A300001EB410102EBC1014268C1EB011102EB44
:104A400081010268C1EB011102EB8102D0E904315E
:104A500001EB410103EB81013023A1F5527191FB80
:104A6000F3F4174D6C4302EBC41291FBF3F403FB18
:104A7000141100921A2902DB124B1A4400920C22E4
:104A800091FBF2F3104C6343009C04EBC3130093BF
:104A900091FBF2F302FB13110C4A08E0491E40F2AD
:104AA000A324535C6343009C04EBC31300930029CD
:104AB000F4DC0146684600F073F8009838BD000049
:104AC0003F0C0F008051010067C2030056610008CF
:104AD00040EA01039B0703D009E008C9121F08C080
:104AE000042AFAD203E011F8013B00F8013B521E00
:104AF000F9D27047D2B201E000F8012B491EFBD277
:104B000070470022F6E710B513460A4604461946D8
:104B1000FFF7F0FF204610BD30B5044600200346E5
:104B200000E05B1C934203D2E05CCD5C401BF8D0FC
:104B300030BD2DE9F05F0546002092469B46884631
:104B40000646814640241BE0284641464746224609
:104B500000F08DF853465A46C01A914110D31146C1
:104B60001846224600F074F82D1A67EB01084F46EC
:104B700022460120002100F06BF817EB00094E419E
:104B8000201EA4F10104DFDC484631462A46434694
:104B9000BDE8F09F014900F003B80000D0060020F6
:104BA00010B500683C22B0FBF2F302FB1303B0FB2C
:104BB000F2F00B60B0FBF2F302FB1303B0FBF2F078
:104BC00018224B60B0FBF2F302FB1303B0FBF2F0D0
:104BD000021D8B600723B2FBF3F403FB1422800059
:104BE00040F2B55300F66C308A61B0FBF3F2B0FBD3
:104BF000F3F403FB1400443280084A61C8613B2887
:104C000002D3920700D0401C0022074C13460A61D1
:104C1000E25C824203D8801A5B1C0B61F8E7401CFF
:104C2000C860084610BD000062610008064C074DD0
:104C300006E0E06840F0010394E80700984710346C
:104C4000AC42F6D3FBF756FA14620008346200084F
:104C5000202A04DB203A00FA02F10020704791403C
:104C6000C2F1200320FA03F3194390407047202A31
:104C700004DB203A21FA02F00021704721FA02F306
:104C8000D040C2F12002914008431946704700000D
:104C90000FB4054B10B503A9044A029800F018F8A8
:104CA00010BC5DF814FB0000F31000082000002089
:104CB00002E008C8121F08C1002AFAD170477047E5
:104CC000002001E001C1121F002AFBD17047000043
:104CD0002DE9FF4F8DB00F460546002606E025283A
:104CE0000BD0DDE90F1290476D1C761C2878002848
:104CF000F5D111B03046BDE8F08F0024A246A146A0
:104D00000122EC4900E0044315F8013F203B02FA80
:104D100003F00842F7D128782A2810D06FF02F022C
:104D20002878A0F13001092914D80AEB8A0102EB96
:104D3000410144F0020400EB010A6D1CF0E701CFD1
:104D40005FEA000A03D544F40054CAF1000A44F0B3
:104D500002046D1C28782E2817D115F8010F44F095
:104D600004042A280ED06FF02F022878A0F1300119
:104D700009290AD809EB890102EB410100EB01097D
:104D80006D1CF2E757F8049B6D1C28786C280FD037
:104D900006DC4C2817D068280DD06A2814D104E00E
:104DA000742810D07A280FD10DE044F400140AE0E2
:104DB00044F4801401E044F440146978814202D143
:104DC00004F580146D1C6D1C2A786E2A1FD00CDC33
:104DD000632A31D004DC002A8BD0582A11D1A3E0F9
:104DE000642A68D0692A0CD165E0732A2ED004DCCD
:104DF0006F2A73D0702A04D19BE0752A6FD0782A6D
:104E00006ED01046DDE90F129047761C50E1C4F3D6
:104E10000250022806D0032809D0042801CF09D067
:104E2000066045E101CFF117C0E9006140E101CF23
:104E300006803DE106703BE117F8040B8DF8000099
:104E400000208DF80100EB46012003E057F804BB79
:104E50004FF0FF3061074FF0000102D40DE008F180
:104E60000101884649450FDA8045F8DB1BF8081038
:104E70000029F4D108E008F1010188468142FADBFB
:104E80001BF808100029F6D1DDE90F23AAEB080072
:104E90008146214600F036F9304400EB080604E074
:104EA000DDE90F121BF8010B9047B8F10108F7D2AA
:104EB00021464846F7E00A21C4F302534FF0000BA5
:104EC0000891022B04D001CFC117032B09D00AE0AF
:104ED000FF1D27F00707F7E8020108E032E01FE0B6
:104EE00020E000B2C117042B01D140B2C117031E4C
:104EF00071F1000307DA4FF0000CD0EB0C006CEB03
:104F000001012D2302E0230504D52B238DF8243045
:104F1000012303E0E30701D02023F7E7984658E098
:104F20000A2110E010210EE010204FF0000B089035
:104F30000CE010214FF0000B44F004044FF008097E
:104F4000089103E008214FF0000B0891C4F30253CD
:104F5000022B04D001CF0021032B06D006E0FF1D59
:104F600027F00707F7E8020103E080B2042B00D125
:104F7000C0B24FF0000823072BD5702A07D0DDF808
:104F800020C08CF0100C5CEA0B0C05D00EE0402326
:104F90008DF82430012308E050EA010306D03023C5
:104FA0008DF824308DF8252002239846DDF820C0A6
:104FB0008CF0080C5CEA0B0C0BD150EA010301D118
:104FC000630706D530238DF824304FF00108A9F18E
:104FD0000109582A04D038A20B9208AA0A920BE0C1
:104FE0003AA2F9E75B46089AFFF7A3FD0B9B9B5C8F
:104FF0000A9A521E0A92137050EA0102F2D10A98DC
:10500000ADEB000000F1200B600702D524F48034E2
:1050100001E04FF00109D94502DDA9EB0B0000E0EA
:10502000002000EB0B0141440890AAEB010AE003C9
:1050300006D4DDE90F232146504600F063F806440C
:105040004FF0000908E009A911F80900DDE90F1285
:10505000904709F10109761CC145F4DBE0030CD54A
:10506000DDE90F232146504600F04CF8064404E0E9
:10507000DDE90F1230209047761C0899481E0890F1
:105080000029F5DC08E00A980A990078491C0A9181
:10509000DDE90F129047761CBBF10001ABF1010B6B
:1050A000F1DC21465046DDE90F2300F019F80644F3
:1050B0006D1C1BE609280100303132333435363798
:1050C0003839616263646566000000003031323354
:1050D00034353637383941424344454600000000F4
:1050E0002DE9F041044600251E461746880404D4E5
:1050F00005E039462020B0476D1C641EF9D52846CE
:10510000BDE8F0812DE9F041044600251E46904699
:10511000C80301D5302700E02027880404D505E026
:1051200041463846B0476D1C641EF9D52846BDE897
:10513000F0810000000000000000000000000000FE
:1051400000003F4000000000000000003000400070
:1051500030004000000009000BC03D000BC03D00C6
:10516000090018C024407FE0224031800000180070
:1051700024C01B000D803240018003801C4027406A
:105180001C8007400040100060000000000000008C
:1051900000000000000000001F80204040200000B0
:1051A000402020401F8000000000090006001F80F2
:1051B000060009000000040004003F800400040011
:1051C000000000100060000000000000000004006B
:1051D000040004000400040000000000004000007F
:1051E000000000000000002001C006003800400060
:1051F00000001F802040204020401F800000000051
:1052000010403FC000400000000018C02140224074
:1052100024401840000010802040244024401B807F
:10522000000002000D0011003FC0014000003C8062
:10523000244024402440238000001F802440244038
:105240003440038000003000200027C038002000D8
:1052500000001B802440244024401B8000001C00D0
:1052600022C0224022401F800000000000000840B1
:1052700000000000000000000000046000000000CA
:105280000000000004000A001100208040400900D6
:1052900009000900090009000000000040402080CA
:1052A00011000A0004001800200023402400180008
:1052B00000001F802040274029401F400000004080
:1052C00007C039000F0001C0004020403FC024400B
:1052D00024401B8000001F80204020402040308060
:1052E000000020403FC0204020401F8000002040A0
:1052F0003FC024402E4030C0000020403FC024402A
:105300002E00300000000F0010802040224033802B
:10531000020020403FC0040004003FC02040204065
:1053200020403FC02040204000000060202020207E
:105330003FC02000200020403FC024400B0030C070
:10534000204020403FC020400040004000C03FC0FF
:105350003C0003C03C003FC0000020403FC00C4068
:1053600023003FC020001F802040204020401F809D
:10537000000020403FC024402400180000001F808F
:105380002140214020E01FA0000020403FC02440D9
:10539000260019C0004018C024402440224031801B
:1053A0000000300020403FC02040300000002000BE
:1053B0003F80004000403F80200020003E0001C0B0
:1053C000070038002000380007C03C0007C0380044
:1053D0000000204039C0060039C0204000002000F5
:1053E000384007C0384020000000304021C026402F
:1053F000384020C00000000000007FE04020402036
:105400000000000070000C0003800040000000005D
:10541000402040207FE0000000000000200040000D
:10542000200000000000001000100010001000100C
:10543000001000000000400000000000000000001C
:1054400002800540054003C0004020003FC00440EA
:105450000440038000000000038004400440064034
:10546000000000000380044024403FC000400000D2
:1054700003800540054003400000000004401FC0B9
:10548000244024402000000002E005500550065052
:10549000042020403FC00440040003C0004000003E
:1054A000044027C00040000000000010001004105D
:1054B00027E00000000020403FC00140070004C07A
:1054C0000440204020403FC000400040000007C092
:1054D000040007C0040003C00000044007C00440EB
:1054E000040003C000400000038004400440038027
:1054F0000000041007F00450044003800000000086
:1055000003800440045007F00010044007C002402C
:10551000040004000000000006400540054004C0EF
:105520000000000004001F80044000400000040050
:1055300007800040044007C000400400070004C08A
:10554000018006000400060001C0070001C006003B
:105550000000044006C0010006C004400000041022
:10556000071004E00180060004000000044005C0AC
:105570000640044000000000000004007BE04020E2
:105580000000000000000000FFF00000000000002C
:1055900040207BE00400000000004000800040004C
:1055A000200020004000000000000000000000007B
:1055B0000000000000000000000000001FCC000CF4
:1055C000000000000000000008003000600008003B
:1055D000300060000000022003FC1E20022003FCBB
:1055E0001E200220000000000E1811043FFF10844E
:1055F0000C78000000000F0010840F3800C00778FE
:1056000018840078000000780F8410C411240E98CC
:1056100000E400840008080068007000000000003A
:1056200000000000000000000000000007E0181863
:10563000200440020000000040022004181807E087
:105640000000000000000240024001800FF00180D5
:105650000240024000000080008000800FF80080BF
:105660000080008000000001000D000E000000001E
:10567000000000000000000000800080008000802A
:105680000080008000800000000C000C0000000082
:10569000000000000000000000060018006001800B
:1056A000060018002000000007F00808100410048D
:1056B000080807F000000000080408041FFC0004AC
:1056C00000040000000000000E0C10141024104410
:1056D00011840E0C000000000C18100411041104B9
:1056E00012880C700000000000E00320042408244D
:1056F0001FFC0024000000001F98108411041104F6
:10570000108810700000000007F0088811041104D0
:1057100018880070000000001C00100010FC13002E
:105720001C001000000000000E381144108410848A
:1057300011440E38000000000700088C104410448B
:10574000088807F00000000000000000030C030CB4
:105750000000000000000000000000010106000041
:105760000000000000000000008001400220041042
:10577000080810040000022002200220022002205B
:10578000022002200000000010040808041002207B
:1057900001400080000000000E001200100C106C90
:1057A00010800F00000003E00C1813E4142417C449
:1057B000082807D000000004003C03C41C40074038
:1057C00000E4001C000410041FFC11041104110467
:1057D0000E880070000003E00C1810041004100480
:1057E00010081C10000010041FFC1004100410040A
:1057F000080807F0000010041FFC1104110417C46E
:1058000010040818000010041FFC1104110017C038
:1058100010000800000003E00C18100410041044ED
:105820001C780040000010041FFC108400800080E1
:1058300010841FFC10040000100410041FFC10044E
:1058400010040000000000030001100110011FFE01
:1058500010001000000010041FFC110403801464E9
:10586000181C1004000010041FFC100400040004A5
:105870000004000C000010041FFC1F0000FC1F00AF
:105880001FFC1004000010041FFC0C04030000E0C7
:1058900010181FFC100007F0080810041004100472
:1058A000080807F0000010041FFC1084108010800E
:1058B00010800F00000007F0081810241024101C9E
:1058C000080A07F2000010041FFC1104110011C0A7
:1058D00011300E0C000400000E1C11041084108402
:1058E00010441C3800001800100010041FFC1004A5
:1058F00010001800000010001FF81004000400043D
:1059000010041FF8100010001E0011E0001C0070B1
:1059100013801C0010001FC0103C00E01F0000E0BE
:10592000103C1FC000001004180C163401C001C048
:105930001634180C100410001C00130400FC13048F
:105940001C00100000000804101C106410841304D4
:105950001C04101800000000000000007FFE400240
:10596000400240020000000030000C000380006094
:10597000001C0003000000004002400240027FFEC5
:105980000000000000000000000020004000400077
:1059900040002000000000010001000100010001A2
:1059A0000001000100010000400040002000000054
:1059B00000000000000000000098012401440144A0
:1059C000014400FC000410001FFC008801040104D5
:1059D00000880070000000000070008801040104CD
:1059E0000104008800000000007000880104010428
:1059F00011081FFC0004000000F8014401440144A8
:105A0000014400C800000000010401040FFC11045F
:105A1000110411001800000000D6012901290129F4
:105A200001C90106000010041FFC008401000100F0
:105A3000010400FC000400000104190419FC000426
:105A40000004000000000000000300010101190132
:105A500019FE0000000010041FFC0024004001B4E7
:105A6000010C010400000000100410041FFC0004DD
:105A7000000400000000010401FC0104010001FC1D
:105A80000104010000FC010401FC0084010001008C
:105A9000010400FC0004000000F8010401040104FA
:105AA000010400F80000010101FF00850104010468
:105AB00000880070000000000070008801040104EC
:105AC000010501FF00010104010401FC008401043F
:105AD000010001800000000000CC01240124012409
